:1000000012C02CC02BC02AC029C028C027C026C0BF
:1000100025C024C023C022C021C020C01FC01EC0D4
:100020001DC01CC01BC011241FBECFE5D4E0DEBF25
:10003000CDBF10E0A0E6B0E0E6E0F9E002C0059038
:100040000D92AC36B107D9F722E0ACE6B0E001C0C2
:100050001D92A934B207E1F7D9D253C4D1CF3D0ADA
:10006000850A5E0BC60CB80E311129149A177C1B39
:10007000C41F68245C29962E0634A139583F1E45BA
:10008000E34A9A503556A65BDF60D465786AC06E45
:10009000A17212760B79837B757DDD7EB67FFE7F44
:1000A000B67FDD7E757D837B0B791276A172C06E83
:1000B000786AD465DF60A65B35569A50E34A1E45E0
:1000C000583FA1390634962E5C296824C41F7C1B36
:1000D0009A1729143111B80EC60C5E0B850AFF7FE2
:1000E0000000617F8B0C897DF8187C7A272540768B
:1000F000FB30E170563C6C6A1C47F1623351815A07
:10010000815A3351F1621C476C6A563CE170FB30F6
:10011000407627257C7AF818897D8B0C617F00005A
:10012000FE7F75F3617F08E7897DD9DA7C7A05CF98
:100130004076AAC3E170E4B86C6ACDAEF1627FA5E7
:10014000815A0F9D335194951C471F8F563CC0898F
:10015000FB30848527257782F8189F808B0C000060
:1001600080004000C0002000A0006000E0001000FF
:1001700090005000D0003000B0007000F000080087
:1001800088004800C8002800A8006800E80018009F
:1001900098005800D8003800B8007800F8003F9266
:1001A0002F921F930F93DF93CF93DC01EB019927DD
:1001B000EEE5F0E000E410E0259135914D915D9180
:1001C000B503B0012C031001691FBC03790B300C7F
:1001D000611D791FDA03790B300C611D791F69935A
:1001E0007993699379930150104031F7CF91DF9162
:1001F0000F911F912F903F90112408953F922F92BD
:100200005F924F927F926F929F928F92BF92AF9226
:10021000DF92CF92FF92EF921F930F93DF93CF93D2
:10022000FC0181E090E0A0E2B0E004E0809F60018A
:10023000909FD00C7C019F938F93EF01A09FC00DE6
:10024000D11DB09FD00DFF93EF93BB24AA24992713
:10025000008111811595079568817981759567955C
:10026000A801061B170B460F571F4193519320817E
:100270003181359527956A817B8175956795A901AF
:10028000261B370B460F571F419351930F01EEED7D
:10029000F0E0EA0DFB1D4591559165917591F001D6
:1002A000950320010C031001491E9C03590A300CD0
:1002B000411C591ED803590A300C411C591EB70362
:1002C00040012E033001891EBE03990A700C811C67
:1002D000991EFA03990A700C811C991E260C371C72
:1002E000481C591C49925992B50320012C03100156
:1002F000491EBC03590A300C411C591EDA03590A25
:10030000300C411C591E970340010E033001891E19
:100310009E03990A700C811C991EF803990A700CAF
:10032000811C991E26183708480859084992599285
:10033000AC0CBD1CA7FE8CCF04E0A09FC00DD11D4E
:10034000E00DF11DB09FD00DF00D81E0E81AF90A23
:1003500009F07BCFEF91FF918F919F91880F991FAB
:10036000B695A795109609F060CFCF91DF910F91C8
:100370001F91EF90FF90CF90DF90AF90BF908F9044
:100380009F906F907F904F905F902F903F90089537
:100390003F922F925F924F927F926F929F928F9295
:1003A000BF92AF921F930F93DF93CF935C01EB014A
:1003B000EEE5F1E0992700E210E0A591B591AA0DD4
:1003C000BB1D2D913D914D915D91B30320012A03F9
:1003D0001001491EBA03590A300C411C591EBA03B8
:1003E000590A300C411C591ED50340014C03300101
:1003F000891EDC03990A700C811C991EDC03990A82
:10040000700C811C991E260C371C481C591C662434
:1004100077248824992421E030E04427552770E18F
:10042000220C331C441C551C661C771C881C991C10
:10043000220C331C441C551C661C771C881C991C00
:100440002AF4620E731E841E951E04C0621A730A7B
:10045000840A950A220F331F441F287F256097FCCA
:1004600022507A95E9F64695379527954695379522
:100470002795299339930150104009F09ECFCF91D1
:10048000DF910F911F91AF90BF908F909F906F90D1
:100490007F904F905F902F903F9011240895AC0172
:1004A0009927D703F0014E03D001E91FDE03F90BB2
:1004B000B00DE11DF91FFC03F90BB00DE11DF91F93
:1004C000CF0111240895662369F045B321E030E09F
:1004D000B90102C0660F771F8A95E2F7CB01842B22
:1004E00085BB089545B321E030E0B90102C0660F35
:1004F000771F8A95E2F7CB018095842385BB089509
:100500001616170674F448B321E030E0B90102C0B2
:10051000660F771F8A95E2F7CB018095842388BB0D
:10052000089548B321E030E0B90102C0660F771F9B
:100530008A95E2F7CB01842B88BB0895161617061F
:1005400074F442B321E030E0B90102C0660F771FB6
:100550008A95E2F7CB018095842382BB089542B34C
:1005600021E030E0B90102C0660F771F8A95E2F7FB
:10057000CB01842B82BB0895882391F081E0809386
:100580006F0061E082E090E09EDF88EC80936D0078
:1005900080917100811114C081E0809371000895F1
:1005A00080916F00882361F060E082E090E08BDF53
:1005B00010926F0080916E00811102C01092710044
:1005C0000895882391F081E080936E0061E083E0DC
:1005D00090E079DF88EC80936C008091710081114C
:1005E00014C081E080937100089580916E0088238B
:1005F00061F060E083E090E066DF10926E00809131
:100600006F00811102C010927100089516B880E445
:1006100087B98FE387BB8CE384BB8CEF81BB60E041
:1006200085E090E050DF61E084E090E04CDF80E026
:10063000A3DF80E0C6DF1092780010927700E9EC2B
:10064000F1E080917700909178008034910598F4E2
:1006500084ED86B9349BFECF84B195B190588193D7
:100660009193809177009091780001969093780013
:1006700080937700E6CF16B882B38F7782BB69ECA0
:1006800070E089EC91E08BDD89EC90E0B7DD69E802
:1006900070E089EC90E07CDE80918D0090918E007E
:1006A000409760F060E070E087E090E047DF809185
:1006B000740080648093740020E006C08091740010
:1006C0008F7B80937400F8CF2630B0F4822F90E0B7
:1006D000FC01EB59FF4FE081F0E0EE0FFF1FE75701
:1006E000FF4F40815181880F991FFC01E758FF4F50
:1006F000518340832F5FE8CFC0E0C630D8F58C2F00
:1007000090E0FC01EE0FFF1FE758FF4F2081318181
:1007100025313105E0F021E030E00C2E02C0220F3F
:10072000331F0A94E2F730917400232B2093740056
:1007300020917500309176001216130624F460E0C3
:1007400070E0DEDE15C061E070E0DADE11C021E0AD
:1007500030E00C2E02C0220F331F0A94E2F72095DE
:100760003091740023232093740061E070E0C8DEB0
:10077000CF5FC3CF8091750090917600181619064F
:1007800004F5C2E0D0E0C730E0F4ED2FF0E0E05A2D
:10079000FF4FE081F0E0EE0FFF1FE757FF4F808132
:1007A0009181409730F061E070E08C2F90E0C6DEE0
:1007B00005C060E070E08C2F90E0C0DEDF5FCF5FAF
:1007C000E2CF80917400882309F460C01092730016
:1007D00080917000811107C061E085E090E073DED8
:1007E00081E0809370008091750090917600892B54
:1007F00021F460E084E090E066DE84EF91E0909385
:10080000760080937500809171008823A1F080911B
:100810006D00882331F0815080936D00811101C0FB
:10082000ABDE80916C00882331F0815080936C00A6
:10083000811101C0C6DE80917400803220F5909154
:1008400072009F3F19F09F5F909372009091720029
:100850009F3A19F0913E09F0EECE80FD0AC08091DA
:100860006F00811103C081E087DEE5CE81E0A9DE63
:10087000E2CE80916E00811103C081E0A2DEDBCE6A
:1008800081E07ADED8CE10927200D5CE80917500CC
:1008900090917600181619060CF0CDCE20917300B9
:1008A0002F3F19F02F5F20937300019790937600EC
:1008B00080937500803E21E0920719F481E081DE8B
:1008C000BACE8D3B21E0920719F481E055DEB3CE1C
:1008D0008233910539F460E085E090E0F4DD109218
:1008E0007000A9CE892B09F0A6CE61E084E090E0EB
:1008F000EADD80E041DE80E064DE82B3837082BBAB
:060900009ACEF894FFCF2F
:0C0906000A0D14161A04081806111E0031
:00000001FF
